{
  "_format": "hh-sol-artifact-1",
  "contractName": "PaloNFT",
  "sourceName": "contracts/PaloNFT.sol",
  "abi": [
    {
      "inputs": [],
      "stateMutability": "nonpayable",
      "type": "constructor"
    },
    {
      "anonymous": false,
      "inputs": [
        {
          "indexed": true,
          "internalType": "address",
          "name": "owner",
          "type": "address"
        },
        {
          "indexed": true,
          "internalType": "address",
          "name": "approved",
          "type": "address"
        },
        {
          "indexed": true,
          "internalType": "uint256",
          "name": "tokenId",
          "type": "uint256"
        }
      ],
      "name": "Approval",
      "type": "event"
    },
    {
      "anonymous": false,
      "inputs": [
        {
          "indexed": true,
          "internalType": "address",
          "name": "owner",
          "type": "address"
        },
        {
          "indexed": true,
          "internalType": "address",
          "name": "operator",
          "type": "address"
        },
        {
          "indexed": false,
          "internalType": "bool",
          "name": "approved",
          "type": "bool"
        }
      ],
      "name": "ApprovalForAll",
      "type": "event"
    },
    {
      "anonymous": false,
      "inputs": [
        {
          "indexed": true,
          "internalType": "address",
          "name": "from",
          "type": "address"
        },
        {
          "indexed": true,
          "internalType": "address",
          "name": "to",
          "type": "address"
        },
        {
          "indexed": true,
          "internalType": "uint256",
          "name": "tokenId",
          "type": "uint256"
        }
      ],
      "name": "Transfer",
      "type": "event"
    },
    {
      "inputs": [
        {
          "internalType": "address",
          "name": "to",
          "type": "address"
        },
        {
          "internalType": "uint256",
          "name": "tokenId",
          "type": "uint256"
        }
      ],
      "name": "approve",
      "outputs": [],
      "stateMutability": "nonpayable",
      "type": "function"
    },
    {
      "inputs": [
        {
          "internalType": "address",
          "name": "owner",
          "type": "address"
        }
      ],
      "name": "balanceOf",
      "outputs": [
        {
          "internalType": "uint256",
          "name": "",
          "type": "uint256"
        }
      ],
      "stateMutability": "view",
      "type": "function"
    },
    {
      "inputs": [
        {
          "internalType": "uint256",
          "name": "tokenId",
          "type": "uint256"
        }
      ],
      "name": "getApproved",
      "outputs": [
        {
          "internalType": "address",
          "name": "",
          "type": "address"
        }
      ],
      "stateMutability": "view",
      "type": "function"
    },
    {
      "inputs": [
        {
          "internalType": "address",
          "name": "owner",
          "type": "address"
        },
        {
          "internalType": "address",
          "name": "operator",
          "type": "address"
        }
      ],
      "name": "isApprovedForAll",
      "outputs": [
        {
          "internalType": "bool",
          "name": "",
          "type": "bool"
        }
      ],
      "stateMutability": "view",
      "type": "function"
    },
    {
      "inputs": [
        {
          "internalType": "address",
          "name": "recipient",
          "type": "address"
        },
        {
          "internalType": "string",
          "name": "_tokenURI",
          "type": "string"
        }
      ],
      "name": "mintNFT",
      "outputs": [
        {
          "internalType": "uint256",
          "name": "",
          "type": "uint256"
        }
      ],
      "stateMutability": "payable",
      "type": "function"
    },
    {
      "inputs": [],
      "name": "name",
      "outputs": [
        {
          "internalType": "string",
          "name": "",
          "type": "string"
        }
      ],
      "stateMutability": "view",
      "type": "function"
    },
    {
      "inputs": [
        {
          "internalType": "uint256",
          "name": "tokenId",
          "type": "uint256"
        }
      ],
      "name": "ownerOf",
      "outputs": [
        {
          "internalType": "address",
          "name": "",
          "type": "address"
        }
      ],
      "stateMutability": "view",
      "type": "function"
    },
    {
      "inputs": [
        {
          "internalType": "address",
          "name": "from",
          "type": "address"
        },
        {
          "internalType": "address",
          "name": "to",
          "type": "address"
        },
        {
          "internalType": "uint256",
          "name": "tokenId",
          "type": "uint256"
        }
      ],
      "name": "safeTransferFrom",
      "outputs": [],
      "stateMutability": "nonpayable",
      "type": "function"
    },
    {
      "inputs": [
        {
          "internalType": "address",
          "name": "from",
          "type": "address"
        },
        {
          "internalType": "address",
          "name": "to",
          "type": "address"
        },
        {
          "internalType": "uint256",
          "name": "tokenId",
          "type": "uint256"
        },
        {
          "internalType": "bytes",
          "name": "data",
          "type": "bytes"
        }
      ],
      "name": "safeTransferFrom",
      "outputs": [],
      "stateMutability": "nonpayable",
      "type": "function"
    },
    {
      "inputs": [
        {
          "internalType": "address",
          "name": "operator",
          "type": "address"
        },
        {
          "internalType": "bool",
          "name": "approved",
          "type": "bool"
        }
      ],
      "name": "setApprovalForAll",
      "outputs": [],
      "stateMutability": "nonpayable",
      "type": "function"
    },
    {
      "inputs": [
        {
          "internalType": "bytes4",
          "name": "interfaceId",
          "type": "bytes4"
        }
      ],
      "name": "supportsInterface",
      "outputs": [
        {
          "internalType": "bool",
          "name": "",
          "type": "bool"
        }
      ],
      "stateMutability": "view",
      "type": "function"
    },
    {
      "inputs": [],
      "name": "symbol",
      "outputs": [
        {
          "internalType": "string",
          "name": "",
          "type": "string"
        }
      ],
      "stateMutability": "view",
      "type": "function"
    },
    {
      "inputs": [
        {
          "internalType": "uint256",
          "name": "index",
          "type": "uint256"
        }
      ],
      "name": "tokenByIndex",
      "outputs": [
        {
          "internalType": "uint256",
          "name": "",
          "type": "uint256"
        }
      ],
      "stateMutability": "view",
      "type": "function"
    },
    {
      "inputs": [
        {
          "internalType": "address",
          "name": "owner",
          "type": "address"
        },
        {
          "internalType": "uint256",
          "name": "index",
          "type": "uint256"
        }
      ],
      "name": "tokenOfOwnerByIndex",
      "outputs": [
        {
          "internalType": "uint256",
          "name": "",
          "type": "uint256"
        }
      ],
      "stateMutability": "view",
      "type": "function"
    },
    {
      "inputs": [
        {
          "internalType": "uint256",
          "name": "tokenId",
          "type": "uint256"
        }
      ],
      "name": "tokenURI",
      "outputs": [
        {
          "internalType": "string",
          "name": "",
          "type": "string"
        }
      ],
      "stateMutability": "view",
      "type": "function"
    },
    {
      "inputs": [],
      "name": "totalSupply",
      "outputs": [
        {
          "internalType": "uint256",
          "name": "",
          "type": "uint256"
        }
      ],
      "stateMutability": "view",
      "type": "function"
    },
    {
      "inputs": [
        {
          "internalType": "address",
          "name": "from",
          "type": "address"
        },
        {
          "internalType": "address",
          "name": "to",
          "type": "address"
        },
        {
          "internalType": "uint256",
          "name": "tokenId",
          "type": "uint256"
        }
      ],
      "name": "transferFrom",
      "outputs": [],
      "stateMutability": "nonpayable",
      "type": "function"
    }
  ],
  "bytecode": "0x60806040523480156200001157600080fd5b506040518060400160405280600781526020017f50616c6f4e4654000000000000000000000000000000000000000000000000008152506040518060400160405280600481526020017f504e46540000000000000000000000000000000000000000000000000000000081525081600090816200008f919062000324565b508060019081620000a1919062000324565b5050506200040b565b600081519050919050565b7f4e487b7100000000000000000000000000000000000000000000000000000000600052604160045260246000fd5b7f4e487b7100000000000000000000000000000000000000000000000000000000600052602260045260246000fd5b600060028204905060018216806200012c57607f821691505b602082108103620001425762000141620000e4565b5b50919050565b60008190508160005260206000209050919050565b60006020601f8301049050919050565b600082821b905092915050565b600060088302620001ac7fffffffffffffffffffffffffffffffffffffffffffffffffffffffffffffffff826200016d565b620001b886836200016d565b95508019841693508086168417925050509392505050565b6000819050919050565b6000819050919050565b600062000205620001ff620001f984620001d0565b620001da565b620001d0565b9050919050565b6000819050919050565b6200022183620001e4565b6200023962000230826200020c565b8484546200017a565b825550505050565b600090565b6200025062000241565b6200025d81848462000216565b505050565b5b8181101562000285576200027960008262000246565b60018101905062000263565b5050565b601f821115620002d4576200029e8162000148565b620002a9846200015d565b81016020851015620002b9578190505b620002d1620002c8856200015d565b83018262000262565b50505b505050565b600082821c905092915050565b6000620002f960001984600802620002d9565b1980831691505092915050565b6000620003148383620002e6565b9150826002028217905092915050565b6200032f82620000aa565b67ffffffffffffffff8111156200034b576200034a620000b5565b5b62000357825462000113565b6200036482828562000289565b600060209050601f8311600181146200039c576000841562000387578287015190505b62000393858262000306565b86555062000403565b601f198416620003ac8662000148565b60005b82811015620003d657848901518255600182019150602085019450602081019050620003af565b86831015620003f65784890151620003f2601f891682620002e6565b8355505b6001600288020188555050505b505050505050565b613682806200041b6000396000f3fe6080604052600436106100fe5760003560e01c80634f6ccce711610095578063a22cb46511610064578063a22cb4651461036d578063b88d4fde14610396578063c87b56dd146103bf578063e985e9c5146103fc578063eacabe1414610439576100fe565b80634f6ccce71461028b5780636352211e146102c857806370a082311461030557806395d89b4114610342576100fe565b806318160ddd116100d157806318160ddd146101d157806323b872dd146101fc5780632f745c591461022557806342842e0e14610262576100fe565b806301ffc9a71461010357806306fdde0314610140578063081812fc1461016b578063095ea7b3146101a8575b600080fd5b34801561010f57600080fd5b5061012a60048036038101906101259190612234565b610469565b604051610137919061227c565b60405180910390f35b34801561014c57600080fd5b5061015561047b565b6040516101629190612327565b60405180910390f35b34801561017757600080fd5b50610192600480360381019061018d919061237f565b61050d565b60405161019f91906123ed565b60405180910390f35b3480156101b457600080fd5b506101cf60048036038101906101ca9190612434565b610553565b005b3480156101dd57600080fd5b506101e661066a565b6040516101f39190612483565b60405180910390f35b34801561020857600080fd5b50610223600480360381019061021e919061249e565b610677565b005b34801561023157600080fd5b5061024c60048036038101906102479190612434565b6106d7565b6040516102599190612483565b60405180910390f35b34801561026e57600080fd5b506102896004803603810190610284919061249e565b61077c565b005b34801561029757600080fd5b506102b260048036038101906102ad919061237f565b61079c565b6040516102bf9190612483565b60405180910390f35b3480156102d457600080fd5b506102ef60048036038101906102ea919061237f565b61080d565b6040516102fc91906123ed565b60405180910390f35b34801561031157600080fd5b5061032c600480360381019061032791906124f1565b610893565b6040516103399190612483565b60405180910390f35b34801561034e57600080fd5b5061035761094a565b6040516103649190612327565b60405180910390f35b34801561037957600080fd5b50610394600480360381019061038f919061254a565b6109dc565b005b3480156103a257600080fd5b506103bd60048036038101906103b891906126bf565b6109f2565b005b3480156103cb57600080fd5b506103e660048036038101906103e1919061237f565b610a54565b6040516103f39190612327565b60405180910390f35b34801561040857600080fd5b50610423600480360381019061041e9190612742565b610a66565b604051610430919061227c565b60405180910390f35b610453600480360381019061044e9190612823565b610afa565b6040516104609190612483565b60405180910390f35b600061047482610b76565b9050919050565b60606000805461048a906128ae565b80601f01602080910402602001604051908101604052809291908181526020018280546104b6906128ae565b80156105035780601f106104d857610100808354040283529160200191610503565b820191906000526020600020905b8154815290600101906020018083116104e657829003601f168201915b5050505050905090565b600061051882610bf0565b6004600083815260200190815260200160002060009054906101000a900473ffffffffffffffffffffffffffffffffffffffff169050919050565b600061055e8261080d565b90508073ffffffffffffffffffffffffffffffffffffffff168373ffffffffffffffffffffffffffffffffffffffff16036105ce576040517f08c379a00000000000000000000000000000000000000000000000000000000081526004016105c590612951565b60405180910390fd5b8073ffffffffffffffffffffffffffffffffffffffff166105ed610c3b565b73ffffffffffffffffffffffffffffffffffffffff16148061061c575061061b81610616610c3b565b610a66565b5b61065b576040517f08c379a0000000000000000000000000000000000000000000000000000000008152600401610652906129e3565b60405180910390fd5b6106658383610c43565b505050565b6000600980549050905090565b610688610682610c3b565b82610cfc565b6106c7576040517f08c379a00000000000000000000000000000000000000000000000000000000081526004016106be90612a75565b60405180910390fd5b6106d2838383610d91565b505050565b60006106e283610893565b8210610723576040517f08c379a000000000000000000000000000000000000000000000000000000000815260040161071a90612b07565b60405180910390fd5b600760008473ffffffffffffffffffffffffffffffffffffffff1673ffffffffffffffffffffffffffffffffffffffff168152602001908152602001600020600083815260200190815260200160002054905092915050565b610797838383604051806020016040528060008152506109f2565b505050565b60006107a661066a565b82106107e7576040517f08c379a00000000000000000000000000000000000000000000000000000000081526004016107de90612b99565b60405180910390fd5b600982815481106107fb576107fa612bb9565b5b90600052602060002001549050919050565b6000806108198361108a565b9050600073ffffffffffffffffffffffffffffffffffffffff168173ffffffffffffffffffffffffffffffffffffffff160361088a576040517f08c379a000000000000000000000000000000000000000000000000000000000815260040161088190612c34565b60405180910390fd5b80915050919050565b60008073ffffffffffffffffffffffffffffffffffffffff168273ffffffffffffffffffffffffffffffffffffffff1603610903576040517f08c379a00000000000000000000000000000000000000000000000000000000081526004016108fa90612cc6565b60405180910390fd5b600360008373ffffffffffffffffffffffffffffffffffffffff1673ffffffffffffffffffffffffffffffffffffffff168152602001908152602001600020549050919050565b606060018054610959906128ae565b80601f0160208091040260200160405190810160405280929190818152602001828054610985906128ae565b80156109d25780601f106109a7576101008083540402835291602001916109d2565b820191906000526020600020905b8154815290600101906020018083116109b557829003601f168201915b5050505050905090565b6109ee6109e7610c3b565b83836110c7565b5050565b610a036109fd610c3b565b83610cfc565b610a42576040517f08c379a0000000000000000000000000000000000000000000000000000000008152600401610a3990612a75565b60405180910390fd5b610a4e84848484611233565b50505050565b6060610a5f8261128f565b9050919050565b6000600560008473ffffffffffffffffffffffffffffffffffffffff1673ffffffffffffffffffffffffffffffffffffffff16815260200190815260200160002060008373ffffffffffffffffffffffffffffffffffffffff1673ffffffffffffffffffffffffffffffffffffffff16815260200190815260200160002060009054906101000a900460ff16905092915050565b6000600a341015610b40576040517f08c379a0000000000000000000000000000000000000000000000000000000008152600401610b3790612d58565b60405180910390fd5b610b4a600b6113a1565b6000610b56600b6113b7565b9050610b6284826113c5565b610b6c81846115e2565b8091505092915050565b60007f780e9d63000000000000000000000000000000000000000000000000000000007bffffffffffffffffffffffffffffffffffffffffffffffffffffffff1916827bffffffffffffffffffffffffffffffffffffffffffffffffffffffff19161480610be95750610be88261164f565b5b9050919050565b610bf981611731565b610c38576040517f08c379a0000000000000000000000000000000000000000000000000000000008152600401610c2f90612c34565b60405180910390fd5b50565b600033905090565b816004600083815260200190815260200160002060006101000a81548173ffffffffffffffffffffffffffffffffffffffff021916908373ffffffffffffffffffffffffffffffffffffffff160217905550808273ffffffffffffffffffffffffffffffffffffffff16610cb68361080d565b73ffffffffffffffffffffffffffffffffffffffff167f8c5be1e5ebec7d5bd14f71427d1e84f3dd0314c0f7b2291e5b200ac8c7c3b92560405160405180910390a45050565b600080610d088361080d565b90508073ffffffffffffffffffffffffffffffffffffffff168473ffffffffffffffffffffffffffffffffffffffff161480610d4a5750610d498185610a66565b5b80610d8857508373ffffffffffffffffffffffffffffffffffffffff16610d708461050d565b73ffffffffffffffffffffffffffffffffffffffff16145b91505092915050565b8273ffffffffffffffffffffffffffffffffffffffff16610db18261080d565b73ffffffffffffffffffffffffffffffffffffffff1614610e07576040517f08c379a0000000000000000000000000000000000000000000000000000000008152600401610dfe90612dea565b60405180910390fd5b600073ffffffffffffffffffffffffffffffffffffffff168273ffffffffffffffffffffffffffffffffffffffff1603610e76576040517f08c379a0000000000000000000000000000000000000000000000000000000008152600401610e6d90612e7c565b60405180910390fd5b610e838383836001611772565b8273ffffffffffffffffffffffffffffffffffffffff16610ea38261080d565b73ffffffffffffffffffffffffffffffffffffffff1614610ef9576040517f08c379a0000000000000000000000000000000000000000000000000000000008152600401610ef090612dea565b60405180910390fd5b6004600082815260200190815260200160002060006101000a81549073ffffffffffffffffffffffffffffffffffffffff02191690556001600360008573ffffffffffffffffffffffffffffffffffffffff1673ffffffffffffffffffffffffffffffffffffffff168152602001908152602001600020600082825403925050819055506001600360008473ffffffffffffffffffffffffffffffffffffffff1673ffffffffffffffffffffffffffffffffffffffff16815260200190815260200160002060008282540192505081905550816002600083815260200190815260200160002060006101000a81548173ffffffffffffffffffffffffffffffffffffffff021916908373ffffffffffffffffffffffffffffffffffffffff160217905550808273ffffffffffffffffffffffffffffffffffffffff168473ffffffffffffffffffffffffffffffffffffffff167fddf252ad1be2c89b69c2b068fc378daa952ba7f163c4a11628f55a4df523b3ef60405160405180910390a46110858383836001611784565b505050565b60006002600083815260200190815260200160002060009054906101000a900473ffffffffffffffffffffffffffffffffffffffff169050919050565b8173ffffffffffffffffffffffffffffffffffffffff168373ffffffffffffffffffffffffffffffffffffffff1603611135576040517f08c379a000000000000000000000000000000000000000000000000000000000815260040161112c90612ee8565b60405180910390fd5b80600560008573ffffffffffffffffffffffffffffffffffffffff1673ffffffffffffffffffffffffffffffffffffffff16815260200190815260200160002060008473ffffffffffffffffffffffffffffffffffffffff1673ffffffffffffffffffffffffffffffffffffffff16815260200190815260200160002060006101000a81548160ff0219169083151502179055508173ffffffffffffffffffffffffffffffffffffffff168373ffffffffffffffffffffffffffffffffffffffff167f17307eab39ab6107e8899845ad3d59bd9653f200f220920489ca2b5937696c3183604051611226919061227c565b60405180910390a3505050565b61123e848484610d91565b61124a8484848461178a565b611289576040517f08c379a000000000000000000000000000000000000000000000000000000000815260040161128090612f7a565b60405180910390fd5b50505050565b606061129a82610bf0565b60006006600084815260200190815260200160002080546112ba906128ae565b80601f01602080910402602001604051908101604052809291908181526020018280546112e6906128ae565b80156113335780601f1061130857610100808354040283529160200191611333565b820191906000526020600020905b81548152906001019060200180831161131657829003601f168201915b505050505090506000611344611911565b9050600081510361135957819250505061139c565b60008251111561138e578082604051602001611376929190612fd6565b6040516020818303038152906040529250505061139c565b61139784611928565b925050505b919050565b6001816000016000828254019250508190555050565b600081600001549050919050565b600073ffffffffffffffffffffffffffffffffffffffff168273ffffffffffffffffffffffffffffffffffffffff1603611434576040517f08c379a000000000000000000000000000000000000000000000000000000000815260040161142b90613046565b60405180910390fd5b61143d81611731565b1561147d576040517f08c379a0000000000000000000000000000000000000000000000000000000008152600401611474906130b2565b60405180910390fd5b61148b600083836001611772565b61149481611731565b156114d4576040517f08c379a00000000000000000000000000000000000000000000000000000000081526004016114cb906130b2565b60405180910390fd5b6001600360008473ffffffffffffffffffffffffffffffffffffffff1673ffffffffffffffffffffffffffffffffffffffff16815260200190815260200160002060008282540192505081905550816002600083815260200190815260200160002060006101000a81548173ffffffffffffffffffffffffffffffffffffffff021916908373ffffffffffffffffffffffffffffffffffffffff160217905550808273ffffffffffffffffffffffffffffffffffffffff16600073ffffffffffffffffffffffffffffffffffffffff167fddf252ad1be2c89b69c2b068fc378daa952ba7f163c4a11628f55a4df523b3ef60405160405180910390a46115de600083836001611784565b5050565b6115eb82611731565b61162a576040517f08c379a000000000000000000000000000000000000000000000000000000000815260040161162190613144565b60405180910390fd5b8060066000848152602001908152602001600020908161164a9190613310565b505050565b60007f80ac58cd000000000000000000000000000000000000000000000000000000007bffffffffffffffffffffffffffffffffffffffffffffffffffffffff1916827bffffffffffffffffffffffffffffffffffffffffffffffffffffffff1916148061171a57507f5b5e139f000000000000000000000000000000000000000000000000000000007bffffffffffffffffffffffffffffffffffffffffffffffffffffffff1916827bffffffffffffffffffffffffffffffffffffffffffffffffffffffff1916145b8061172a575061172982611990565b5b9050919050565b60008073ffffffffffffffffffffffffffffffffffffffff166117538361108a565b73ffffffffffffffffffffffffffffffffffffffff1614159050919050565b61177e848484846119fa565b50505050565b50505050565b60006117ab8473ffffffffffffffffffffffffffffffffffffffff16611b58565b15611904578373ffffffffffffffffffffffffffffffffffffffff1663150b7a026117d4610c3b565b8786866040518563ffffffff1660e01b81526004016117f69493929190613437565b6020604051808303816000875af192505050801561183257506040513d601f19601f8201168201806040525081019061182f9190613498565b60015b6118b4573d8060008114611862576040519150601f19603f3d011682016040523d82523d6000602084013e611867565b606091505b5060008151036118ac576040517f08c379a00000000000000000000000000000000000000000000000000000000081526004016118a390612f7a565b60405180910390fd5b805181602001fd5b63150b7a0260e01b7bffffffffffffffffffffffffffffffffffffffffffffffffffffffff1916817bffffffffffffffffffffffffffffffffffffffffffffffffffffffff191614915050611909565b600190505b949350505050565b606060405180602001604052806000815250905090565b606061193382610bf0565b600061193d611911565b9050600081511161195d5760405180602001604052806000815250611988565b8061196784611b7b565b604051602001611978929190612fd6565b6040516020818303038152906040525b915050919050565b60007f01ffc9a7000000000000000000000000000000000000000000000000000000007bffffffffffffffffffffffffffffffffffffffffffffffffffffffff1916827bffffffffffffffffffffffffffffffffffffffffffffffffffffffff1916149050919050565b611a0684848484611c49565b6001811115611a4a576040517f08c379a0000000000000000000000000000000000000000000000000000000008152600401611a4190613537565b60405180910390fd5b6000829050600073ffffffffffffffffffffffffffffffffffffffff168573ffffffffffffffffffffffffffffffffffffffff1603611a9157611a8c81611d6f565b611ad0565b8373ffffffffffffffffffffffffffffffffffffffff168573ffffffffffffffffffffffffffffffffffffffff1614611acf57611ace8582611db8565b5b5b600073ffffffffffffffffffffffffffffffffffffffff168473ffffffffffffffffffffffffffffffffffffffff1603611b1257611b0d81611f25565b611b51565b8473ffffffffffffffffffffffffffffffffffffffff168473ffffffffffffffffffffffffffffffffffffffff1614611b5057611b4f8482611ff6565b5b5b5050505050565b6000808273ffffffffffffffffffffffffffffffffffffffff163b119050919050565b606060006001611b8a84612075565b01905060008167ffffffffffffffff811115611ba957611ba8612594565b5b6040519080825280601f01601f191660200182016040528015611bdb5781602001600182028036833780820191505090505b509050600082602001820190505b600115611c3e578080600190039150507f3031323334353637383961626364656600000000000000000000000000000000600a86061a8153600a8581611c3257611c31613557565b5b04945060008503611be9575b819350505050919050565b6001811115611d6957600073ffffffffffffffffffffffffffffffffffffffff168473ffffffffffffffffffffffffffffffffffffffff1614611cdd5780600360008673ffffffffffffffffffffffffffffffffffffffff1673ffffffffffffffffffffffffffffffffffffffff1681526020019081526020016000206000828254611cd591906135b5565b925050819055505b600073ffffffffffffffffffffffffffffffffffffffff168373ffffffffffffffffffffffffffffffffffffffff1614611d685780600360008573ffffffffffffffffffffffffffffffffffffffff1673ffffffffffffffffffffffffffffffffffffffff1681526020019081526020016000206000828254611d6091906135e9565b925050819055505b5b50505050565b600980549050600a600083815260200190815260200160002081905550600981908060018154018082558091505060019003906000526020600020016000909190919091505550565b60006001611dc584610893565b611dcf91906135b5565b9050600060086000848152602001908152602001600020549050818114611eb4576000600760008673ffffffffffffffffffffffffffffffffffffffff1673ffffffffffffffffffffffffffffffffffffffff168152602001908152602001600020600084815260200190815260200160002054905080600760008773ffffffffffffffffffffffffffffffffffffffff1673ffffffffffffffffffffffffffffffffffffffff168152602001908152602001600020600084815260200190815260200160002081905550816008600083815260200190815260200160002081905550505b6008600084815260200190815260200160002060009055600760008573ffffffffffffffffffffffffffffffffffffffff1673ffffffffffffffffffffffffffffffffffffffff16815260200190815260200160002060008381526020019081526020016000206000905550505050565b60006001600980549050611f3991906135b5565b90506000600a6000848152602001908152602001600020549050600060098381548110611f6957611f68612bb9565b5b906000526020600020015490508060098381548110611f8b57611f8a612bb9565b5b906000526020600020018190555081600a600083815260200190815260200160002081905550600a6000858152602001908152602001600020600090556009805480611fda57611fd961361d565b5b6001900381819060005260206000200160009055905550505050565b600061200183610893565b905081600760008573ffffffffffffffffffffffffffffffffffffffff1673ffffffffffffffffffffffffffffffffffffffff168152602001908152602001600020600083815260200190815260200160002081905550806008600084815260200190815260200160002081905550505050565b600080600090507a184f03e93ff9f4daa797ed6e38ed64bf6a1f01000000000000000083106120d3577a184f03e93ff9f4daa797ed6e38ed64bf6a1f01000000000000000083816120c9576120c8613557565b5b0492506040810190505b6d04ee2d6d415b85acef81000000008310612110576d04ee2d6d415b85acef8100000000838161210657612105613557565b5b0492506020810190505b662386f26fc10000831061213f57662386f26fc10000838161213557612134613557565b5b0492506010810190505b6305f5e1008310612168576305f5e100838161215e5761215d613557565b5b0492506008810190505b612710831061218d57612710838161218357612182613557565b5b0492506004810190505b606483106121b057606483816121a6576121a5613557565b5b0492506002810190505b600a83106121bf576001810190505b80915050919050565b6000604051905090565b600080fd5b600080fd5b60007fffffffff0000000000000000000000000000000000000000000000000000000082169050919050565b612211816121dc565b811461221c57600080fd5b50565b60008135905061222e81612208565b92915050565b60006020828403121561224a576122496121d2565b5b60006122588482850161221f565b91505092915050565b60008115159050919050565b61227681612261565b82525050565b6000602082019050612291600083018461226d565b92915050565b600081519050919050565b600082825260208201905092915050565b60005b838110156122d15780820151818401526020810190506122b6565b60008484015250505050565b6000601f19601f8301169050919050565b60006122f982612297565b61230381856122a2565b93506123138185602086016122b3565b61231c816122dd565b840191505092915050565b6000602082019050818103600083015261234181846122ee565b905092915050565b6000819050919050565b61235c81612349565b811461236757600080fd5b50565b60008135905061237981612353565b92915050565b600060208284031215612395576123946121d2565b5b60006123a38482850161236a565b91505092915050565b600073ffffffffffffffffffffffffffffffffffffffff82169050919050565b60006123d7826123ac565b9050919050565b6123e7816123cc565b82525050565b600060208201905061240260008301846123de565b92915050565b612411816123cc565b811461241c57600080fd5b50565b60008135905061242e81612408565b92915050565b6000806040838503121561244b5761244a6121d2565b5b60006124598582860161241f565b925050602061246a8582860161236a565b9150509250929050565b61247d81612349565b82525050565b60006020820190506124986000830184612474565b92915050565b6000806000606084860312156124b7576124b66121d2565b5b60006124c58682870161241f565b93505060206124d68682870161241f565b92505060406124e78682870161236a565b9150509250925092565b600060208284031215612507576125066121d2565b5b60006125158482850161241f565b91505092915050565b61252781612261565b811461253257600080fd5b50565b6000813590506125448161251e565b92915050565b60008060408385031215612561576125606121d2565b5b600061256f8582860161241f565b925050602061258085828601612535565b9150509250929050565b600080fd5b600080fd5b7f4e487b7100000000000000000000000000000000000000000000000000000000600052604160045260246000fd5b6125cc826122dd565b810181811067ffffffffffffffff821117156125eb576125ea612594565b5b80604052505050565b60006125fe6121c8565b905061260a82826125c3565b919050565b600067ffffffffffffffff82111561262a57612629612594565b5b612633826122dd565b9050602081019050919050565b82818337600083830152505050565b600061266261265d8461260f565b6125f4565b90508281526020810184848401111561267e5761267d61258f565b5b612689848285612640565b509392505050565b600082601f8301126126a6576126a561258a565b5b81356126b684826020860161264f565b91505092915050565b600080600080608085870312156126d9576126d86121d2565b5b60006126e78782880161241f565b94505060206126f88782880161241f565b93505060406127098782880161236a565b925050606085013567ffffffffffffffff81111561272a576127296121d7565b5b61273687828801612691565b91505092959194509250565b60008060408385031215612759576127586121d2565b5b60006127678582860161241f565b92505060206127788582860161241f565b9150509250929050565b600067ffffffffffffffff82111561279d5761279c612594565b5b6127a6826122dd565b9050602081019050919050565b60006127c66127c184612782565b6125f4565b9050828152602081018484840111156127e2576127e161258f565b5b6127ed848285612640565b509392505050565b600082601f83011261280a5761280961258a565b5b813561281a8482602086016127b3565b91505092915050565b6000806040838503121561283a576128396121d2565b5b60006128488582860161241f565b925050602083013567ffffffffffffffff811115612869576128686121d7565b5b612875858286016127f5565b9150509250929050565b7f4e487b7100000000000000000000000000000000000000000000000000000000600052602260045260246000fd5b600060028204905060018216806128c657607f821691505b6020821081036128d9576128d861287f565b5b50919050565b7f4552433732313a20617070726f76616c20746f2063757272656e74206f776e6560008201527f7200000000000000000000000000000000000000000000000000000000000000602082015250565b600061293b6021836122a2565b9150612946826128df565b604082019050919050565b6000602082019050818103600083015261296a8161292e565b9050919050565b7f4552433732313a20617070726f76652063616c6c6572206973206e6f7420746f60008201527f6b656e206f776e6572206f7220617070726f76656420666f7220616c6c000000602082015250565b60006129cd603d836122a2565b91506129d882612971565b604082019050919050565b600060208201905081810360008301526129fc816129c0565b9050919050565b7f4552433732313a2063616c6c6572206973206e6f7420746f6b656e206f776e6560008201527f72206f7220617070726f76656400000000000000000000000000000000000000602082015250565b6000612a5f602d836122a2565b9150612a6a82612a03565b604082019050919050565b60006020820190508181036000830152612a8e81612a52565b9050919050565b7f455243373231456e756d657261626c653a206f776e657220696e646578206f7560008201527f74206f6620626f756e6473000000000000000000000000000000000000000000602082015250565b6000612af1602b836122a2565b9150612afc82612a95565b604082019050919050565b60006020820190508181036000830152612b2081612ae4565b9050919050565b7f455243373231456e756d657261626c653a20676c6f62616c20696e646578206f60008201527f7574206f6620626f756e64730000000000000000000000000000000000000000602082015250565b6000612b83602c836122a2565b9150612b8e82612b27565b604082019050919050565b60006020820190508181036000830152612bb281612b76565b9050919050565b7f4e487b7100000000000000000000000000000000000000000000000000000000600052603260045260246000fd5b7f4552433732313a20696e76616c696420746f6b656e2049440000000000000000600082015250565b6000612c1e6018836122a2565b9150612c2982612be8565b602082019050919050565b60006020820190508181036000830152612c4d81612c11565b9050919050565b7f4552433732313a2061646472657373207a65726f206973206e6f74206120766160008201527f6c6964206f776e65720000000000000000000000000000000000000000000000602082015250565b6000612cb06029836122a2565b9150612cbb82612c54565b604082019050919050565b60006020820190508181036000830152612cdf81612ca3565b9050919050565b7f4e6f7420656e6f756768204554482073656e743b20636865636b20707269636560008201527f2100000000000000000000000000000000000000000000000000000000000000602082015250565b6000612d426021836122a2565b9150612d4d82612ce6565b604082019050919050565b60006020820190508181036000830152612d7181612d35565b9050919050565b7f4552433732313a207472616e736665722066726f6d20696e636f72726563742060008201527f6f776e6572000000000000000000000000000000000000000000000000000000602082015250565b6000612dd46025836122a2565b9150612ddf82612d78565b604082019050919050565b60006020820190508181036000830152612e0381612dc7565b9050919050565b7f4552433732313a207472616e7366657220746f20746865207a65726f2061646460008201527f7265737300000000000000000000000000000000000000000000000000000000602082015250565b6000612e666024836122a2565b9150612e7182612e0a565b604082019050919050565b60006020820190508181036000830152612e9581612e59565b9050919050565b7f4552433732313a20617070726f766520746f2063616c6c657200000000000000600082015250565b6000612ed26019836122a2565b9150612edd82612e9c565b602082019050919050565b60006020820190508181036000830152612f0181612ec5565b9050919050565b7f4552433732313a207472616e7366657220746f206e6f6e20455243373231526560008201527f63656976657220696d706c656d656e7465720000000000000000000000000000602082015250565b6000612f646032836122a2565b9150612f6f82612f08565b604082019050919050565b60006020820190508181036000830152612f9381612f57565b9050919050565b600081905092915050565b6000612fb082612297565b612fba8185612f9a565b9350612fca8185602086016122b3565b80840191505092915050565b6000612fe28285612fa5565b9150612fee8284612fa5565b91508190509392505050565b7f4552433732313a206d696e7420746f20746865207a65726f2061646472657373600082015250565b60006130306020836122a2565b915061303b82612ffa565b602082019050919050565b6000602082019050818103600083015261305f81613023565b9050919050565b7f4552433732313a20746f6b656e20616c7265616479206d696e74656400000000600082015250565b600061309c601c836122a2565b91506130a782613066565b602082019050919050565b600060208201905081810360008301526130cb8161308f565b9050919050565b7f45524337323155524953746f726167653a2055524920736574206f66206e6f6e60008201527f6578697374656e7420746f6b656e000000000000000000000000000000000000602082015250565b600061312e602e836122a2565b9150613139826130d2565b604082019050919050565b6000602082019050818103600083015261315d81613121565b9050919050565b60008190508160005260206000209050919050565b60006020601f8301049050919050565b600082821b905092915050565b6000600883026131c67fffffffffffffffffffffffffffffffffffffffffffffffffffffffffffffffff82613189565b6131d08683613189565b95508019841693508086168417925050509392505050565b6000819050919050565b600061320d61320861320384612349565b6131e8565b612349565b9050919050565b6000819050919050565b613227836131f2565b61323b61323382613214565b848454613196565b825550505050565b600090565b613250613243565b61325b81848461321e565b505050565b5b8181101561327f57613274600082613248565b600181019050613261565b5050565b601f8211156132c45761329581613164565b61329e84613179565b810160208510156132ad578190505b6132c16132b985613179565b830182613260565b50505b505050565b600082821c905092915050565b60006132e7600019846008026132c9565b1980831691505092915050565b600061330083836132d6565b9150826002028217905092915050565b61331982612297565b67ffffffffffffffff81111561333257613331612594565b5b61333c82546128ae565b613347828285613283565b600060209050601f83116001811461337a5760008415613368578287015190505b61337285826132f4565b8655506133da565b601f19841661338886613164565b60005b828110156133b05784890151825560018201915060208501945060208101905061338b565b868310156133cd57848901516133c9601f8916826132d6565b8355505b6001600288020188555050505b505050505050565b600081519050919050565b600082825260208201905092915050565b6000613409826133e2565b61341381856133ed565b93506134238185602086016122b3565b61342c816122dd565b840191505092915050565b600060808201905061344c60008301876123de565b61345960208301866123de565b6134666040830185612474565b818103606083015261347881846133fe565b905095945050505050565b60008151905061349281612208565b92915050565b6000602082840312156134ae576134ad6121d2565b5b60006134bc84828501613483565b91505092915050565b7f455243373231456e756d657261626c653a20636f6e736563757469766520747260008201527f616e7366657273206e6f7420737570706f727465640000000000000000000000602082015250565b60006135216035836122a2565b915061352c826134c5565b604082019050919050565b6000602082019050818103600083015261355081613514565b9050919050565b7f4e487b7100000000000000000000000000000000000000000000000000000000600052601260045260246000fd5b7f4e487b7100000000000000000000000000000000000000000000000000000000600052601160045260246000fd5b60006135c082612349565b91506135cb83612349565b92508282039050818111156135e3576135e2613586565b5b92915050565b60006135f482612349565b91506135ff83612349565b925082820190508082111561361757613616613586565b5b92915050565b7f4e487b7100000000000000000000000000000000000000000000000000000000600052603160045260246000fdfea26469706673582212205804de3c8b6c914b0638ba30886f178e56d9a9ce0242fa902fbbfa962ed8520864736f6c63430008110033",
  "linkReferences": {},
  "deployedLinkReferences": {}
}