{
  "_format": "hh-sol-artifact-1",
  "contractName": "PaloNFT",
  "sourceName": "contracts/PaloNFT.sol",
  "abi": [
    {
      "inputs": [],
      "stateMutability": "nonpayable",
      "type": "constructor"
    },
    {
      "anonymous": false,
      "inputs": [
        {
          "indexed": true,
          "internalType": "address",
          "name": "owner",
          "type": "address"
        },
        {
          "indexed": true,
          "internalType": "address",
          "name": "approved",
          "type": "address"
        },
        {
          "indexed": true,
          "internalType": "uint256",
          "name": "tokenId",
          "type": "uint256"
        }
      ],
      "name": "Approval",
      "type": "event"
    },
    {
      "anonymous": false,
      "inputs": [
        {
          "indexed": true,
          "internalType": "address",
          "name": "owner",
          "type": "address"
        },
        {
          "indexed": true,
          "internalType": "address",
          "name": "operator",
          "type": "address"
        },
        {
          "indexed": false,
          "internalType": "bool",
          "name": "approved",
          "type": "bool"
        }
      ],
      "name": "ApprovalForAll",
      "type": "event"
    },
    {
      "anonymous": false,
      "inputs": [
        {
          "indexed": true,
          "internalType": "address",
          "name": "from",
          "type": "address"
        },
        {
          "indexed": true,
          "internalType": "address",
          "name": "to",
          "type": "address"
        },
        {
          "indexed": true,
          "internalType": "uint256",
          "name": "tokenId",
          "type": "uint256"
        }
      ],
      "name": "Transfer",
      "type": "event"
    },
    {
      "inputs": [
        {
          "internalType": "address",
          "name": "to",
          "type": "address"
        },
        {
          "internalType": "uint256",
          "name": "tokenId",
          "type": "uint256"
        }
      ],
      "name": "approve",
      "outputs": [],
      "stateMutability": "nonpayable",
      "type": "function"
    },
    {
      "inputs": [
        {
          "internalType": "address",
          "name": "owner",
          "type": "address"
        }
      ],
      "name": "balanceOf",
      "outputs": [
        {
          "internalType": "uint256",
          "name": "",
          "type": "uint256"
        }
      ],
      "stateMutability": "view",
      "type": "function"
    },
    {
      "inputs": [
        {
          "internalType": "uint256",
          "name": "tokenId",
          "type": "uint256"
        }
      ],
      "name": "getApproved",
      "outputs": [
        {
          "internalType": "address",
          "name": "",
          "type": "address"
        }
      ],
      "stateMutability": "view",
      "type": "function"
    },
    {
      "inputs": [
        {
          "internalType": "address",
          "name": "owner",
          "type": "address"
        },
        {
          "internalType": "address",
          "name": "operator",
          "type": "address"
        }
      ],
      "name": "isApprovedForAll",
      "outputs": [
        {
          "internalType": "bool",
          "name": "",
          "type": "bool"
        }
      ],
      "stateMutability": "view",
      "type": "function"
    },
    {
      "inputs": [
        {
          "internalType": "address",
          "name": "recipient",
          "type": "address"
        },
        {
          "internalType": "string",
          "name": "_tokenURI",
          "type": "string"
        }
      ],
      "name": "mintNFT",
      "outputs": [
        {
          "internalType": "uint256",
          "name": "",
          "type": "uint256"
        }
      ],
      "stateMutability": "payable",
      "type": "function"
    },
    {
      "inputs": [],
      "name": "name",
      "outputs": [
        {
          "internalType": "string",
          "name": "",
          "type": "string"
        }
      ],
      "stateMutability": "view",
      "type": "function"
    },
    {
      "inputs": [
        {
          "internalType": "uint256",
          "name": "tokenId",
          "type": "uint256"
        }
      ],
      "name": "ownerOf",
      "outputs": [
        {
          "internalType": "address",
          "name": "",
          "type": "address"
        }
      ],
      "stateMutability": "view",
      "type": "function"
    },
    {
      "inputs": [
        {
          "internalType": "address",
          "name": "from",
          "type": "address"
        },
        {
          "internalType": "address",
          "name": "to",
          "type": "address"
        },
        {
          "internalType": "uint256",
          "name": "tokenId",
          "type": "uint256"
        }
      ],
      "name": "safeTransferFrom",
      "outputs": [],
      "stateMutability": "nonpayable",
      "type": "function"
    },
    {
      "inputs": [
        {
          "internalType": "address",
          "name": "from",
          "type": "address"
        },
        {
          "internalType": "address",
          "name": "to",
          "type": "address"
        },
        {
          "internalType": "uint256",
          "name": "tokenId",
          "type": "uint256"
        },
        {
          "internalType": "bytes",
          "name": "data",
          "type": "bytes"
        }
      ],
      "name": "safeTransferFrom",
      "outputs": [],
      "stateMutability": "nonpayable",
      "type": "function"
    },
    {
      "inputs": [
        {
          "internalType": "address",
          "name": "operator",
          "type": "address"
        },
        {
          "internalType": "bool",
          "name": "approved",
          "type": "bool"
        }
      ],
      "name": "setApprovalForAll",
      "outputs": [],
      "stateMutability": "nonpayable",
      "type": "function"
    },
    {
      "inputs": [
        {
          "internalType": "bytes4",
          "name": "interfaceId",
          "type": "bytes4"
        }
      ],
      "name": "supportsInterface",
      "outputs": [
        {
          "internalType": "bool",
          "name": "",
          "type": "bool"
        }
      ],
      "stateMutability": "view",
      "type": "function"
    },
    {
      "inputs": [],
      "name": "symbol",
      "outputs": [
        {
          "internalType": "string",
          "name": "",
          "type": "string"
        }
      ],
      "stateMutability": "view",
      "type": "function"
    },
    {
      "inputs": [
        {
          "internalType": "uint256",
          "name": "index",
          "type": "uint256"
        }
      ],
      "name": "tokenByIndex",
      "outputs": [
        {
          "internalType": "uint256",
          "name": "",
          "type": "uint256"
        }
      ],
      "stateMutability": "view",
      "type": "function"
    },
    {
      "inputs": [
        {
          "internalType": "address",
          "name": "owner",
          "type": "address"
        },
        {
          "internalType": "uint256",
          "name": "index",
          "type": "uint256"
        }
      ],
      "name": "tokenOfOwnerByIndex",
      "outputs": [
        {
          "internalType": "uint256",
          "name": "",
          "type": "uint256"
        }
      ],
      "stateMutability": "view",
      "type": "function"
    },
    {
      "inputs": [
        {
          "internalType": "uint256",
          "name": "tokenId",
          "type": "uint256"
        }
      ],
      "name": "tokenURI",
      "outputs": [
        {
          "internalType": "string",
          "name": "",
          "type": "string"
        }
      ],
      "stateMutability": "view",
      "type": "function"
    },
    {
      "inputs": [],
      "name": "totalSupply",
      "outputs": [
        {
          "internalType": "uint256",
          "name": "",
          "type": "uint256"
        }
      ],
      "stateMutability": "view",
      "type": "function"
    },
    {
      "inputs": [
        {
          "internalType": "address",
          "name": "from",
          "type": "address"
        },
        {
          "internalType": "address",
          "name": "to",
          "type": "address"
        },
        {
          "internalType": "uint256",
          "name": "tokenId",
          "type": "uint256"
        }
      ],
      "name": "transferFrom",
      "outputs": [],
      "stateMutability": "nonpayable",
      "type": "function"
    }
  ],
  "bytecode": "0x60806040523480156200001157600080fd5b506040518060400160405280600781526020017f50616c6f4e4654000000000000000000000000000000000000000000000000008152506040518060400160405280600481526020017f504e46540000000000000000000000000000000000000000000000000000000081525081600090816200008f919062000324565b508060019081620000a1919062000324565b5050506200040b565b600081519050919050565b7f4e487b7100000000000000000000000000000000000000000000000000000000600052604160045260246000fd5b7f4e487b7100000000000000000000000000000000000000000000000000000000600052602260045260246000fd5b600060028204905060018216806200012c57607f821691505b602082108103620001425762000141620000e4565b5b50919050565b60008190508160005260206000209050919050565b60006020601f8301049050919050565b600082821b905092915050565b600060088302620001ac7fffffffffffffffffffffffffffffffffffffffffffffffffffffffffffffffff826200016d565b620001b886836200016d565b95508019841693508086168417925050509392505050565b6000819050919050565b6000819050919050565b600062000205620001ff620001f984620001d0565b620001da565b620001d0565b9050919050565b6000819050919050565b6200022183620001e4565b6200023962000230826200020c565b8484546200017a565b825550505050565b600090565b6200025062000241565b6200025d81848462000216565b505050565b5b8181101562000285576200027960008262000246565b60018101905062000263565b5050565b601f821115620002d4576200029e8162000148565b620002a9846200015d565b81016020851015620002b9578190505b620002d1620002c8856200015d565b83018262000262565b50505b505050565b600082821c905092915050565b6000620002f960001984600802620002d9565b1980831691505092915050565b6000620003148383620002e6565b9150826002028217905092915050565b6200032f82620000aa565b67ffffffffffffffff8111156200034b576200034a620000b5565b5b62000357825462000113565b6200036482828562000289565b600060209050601f8311600181146200039c576000841562000387578287015190505b62000393858262000306565b86555062000403565b601f198416620003ac8662000148565b60005b82811015620003d657848901518255600182019150602085019450602081019050620003af565b86831015620003f65784890151620003f2601f891682620002e6565b8355505b6001600288020188555050505b505050505050565b6133ab806200041b6000396000f3fe6080604052600436106100fe5760003560e01c80634f6ccce711610095578063a22cb46511610064578063a22cb4651461036d578063b88d4fde14610396578063c87b56dd146103bf578063e985e9c5146103fc578063eacabe1414610439576100fe565b80634f6ccce71461028b5780636352211e146102c857806370a082311461030557806395d89b4114610342576100fe565b806318160ddd116100d157806318160ddd146101d157806323b872dd146101fc5780632f745c591461022557806342842e0e14610262576100fe565b806301ffc9a71461010357806306fdde0314610140578063081812fc1461016b578063095ea7b3146101a8575b600080fd5b34801561010f57600080fd5b5061012a60048036038101906101259190611f45565b610469565b6040516101379190611f8d565b60405180910390f35b34801561014c57600080fd5b5061015561047b565b6040516101629190612038565b60405180910390f35b34801561017757600080fd5b50610192600480360381019061018d9190612090565b61050d565b60405161019f91906120fe565b60405180910390f35b3480156101b457600080fd5b506101cf60048036038101906101ca9190612145565b610553565b005b3480156101dd57600080fd5b506101e661066a565b6040516101f39190612194565b60405180910390f35b34801561020857600080fd5b50610223600480360381019061021e91906121af565b610677565b005b34801561023157600080fd5b5061024c60048036038101906102479190612145565b6106d7565b6040516102599190612194565b60405180910390f35b34801561026e57600080fd5b50610289600480360381019061028491906121af565b61077c565b005b34801561029757600080fd5b506102b260048036038101906102ad9190612090565b61079c565b6040516102bf9190612194565b60405180910390f35b3480156102d457600080fd5b506102ef60048036038101906102ea9190612090565b61080d565b6040516102fc91906120fe565b60405180910390f35b34801561031157600080fd5b5061032c60048036038101906103279190612202565b6108be565b6040516103399190612194565b60405180910390f35b34801561034e57600080fd5b50610357610975565b6040516103649190612038565b60405180910390f35b34801561037957600080fd5b50610394600480360381019061038f919061225b565b610a07565b005b3480156103a257600080fd5b506103bd60048036038101906103b891906123d0565b610a1d565b005b3480156103cb57600080fd5b506103e660048036038101906103e19190612090565b610a7f565b6040516103f39190612038565b60405180910390f35b34801561040857600080fd5b50610423600480360381019061041e9190612453565b610a91565b6040516104309190611f8d565b60405180910390f35b610453600480360381019061044e9190612534565b610b25565b6040516104609190612194565b60405180910390f35b600061047482610ba1565b9050919050565b60606000805461048a906125bf565b80601f01602080910402602001604051908101604052809291908181526020018280546104b6906125bf565b80156105035780601f106104d857610100808354040283529160200191610503565b820191906000526020600020905b8154815290600101906020018083116104e657829003601f168201915b5050505050905090565b600061051882610c1b565b6004600083815260200190815260200160002060009054906101000a900473ffffffffffffffffffffffffffffffffffffffff169050919050565b600061055e8261080d565b90508073ffffffffffffffffffffffffffffffffffffffff168373ffffffffffffffffffffffffffffffffffffffff16036105ce576040517f08c379a00000000000000000000000000000000000000000000000000000000081526004016105c590612662565b60405180910390fd5b8073ffffffffffffffffffffffffffffffffffffffff166105ed610c66565b73ffffffffffffffffffffffffffffffffffffffff16148061061c575061061b81610616610c66565b610a91565b5b61065b576040517f08c379a0000000000000000000000000000000000000000000000000000000008152600401610652906126f4565b60405180910390fd5b6106658383610c6e565b505050565b6000600980549050905090565b610688610682610c66565b82610d27565b6106c7576040517f08c379a00000000000000000000000000000000000000000000000000000000081526004016106be90612786565b60405180910390fd5b6106d2838383610dbc565b505050565b60006106e2836108be565b8210610723576040517f08c379a000000000000000000000000000000000000000000000000000000000815260040161071a90612818565b60405180910390fd5b600760008473ffffffffffffffffffffffffffffffffffffffff1673ffffffffffffffffffffffffffffffffffffffff168152602001908152602001600020600083815260200190815260200160002054905092915050565b61079783838360405180602001604052806000815250610a1d565b505050565b60006107a661066a565b82106107e7576040517f08c379a00000000000000000000000000000000000000000000000000000000081526004016107de906128aa565b60405180910390fd5b600982815481106107fb576107fa6128ca565b5b90600052602060002001549050919050565b6000806002600084815260200190815260200160002060009054906101000a900473ffffffffffffffffffffffffffffffffffffffff169050600073ffffffffffffffffffffffffffffffffffffffff168173ffffffffffffffffffffffffffffffffffffffff16036108b5576040517f08c379a00000000000000000000000000000000000000000000000000000000081526004016108ac90612945565b60405180910390fd5b80915050919050565b60008073ffffffffffffffffffffffffffffffffffffffff168273ffffffffffffffffffffffffffffffffffffffff160361092e576040517f08c379a0000000000000000000000000000000000000000000000000000000008152600401610925906129d7565b60405180910390fd5b600360008373ffffffffffffffffffffffffffffffffffffffff1673ffffffffffffffffffffffffffffffffffffffff168152602001908152602001600020549050919050565b606060018054610984906125bf565b80601f01602080910402602001604051908101604052809291908181526020018280546109b0906125bf565b80156109fd5780601f106109d2576101008083540402835291602001916109fd565b820191906000526020600020905b8154815290600101906020018083116109e057829003601f168201915b5050505050905090565b610a19610a12610c66565b8383611022565b5050565b610a2e610a28610c66565b83610d27565b610a6d576040517f08c379a0000000000000000000000000000000000000000000000000000000008152600401610a6490612786565b60405180910390fd5b610a798484848461118e565b50505050565b6060610a8a826111ea565b9050919050565b6000600560008473ffffffffffffffffffffffffffffffffffffffff1673ffffffffffffffffffffffffffffffffffffffff16815260200190815260200160002060008373ffffffffffffffffffffffffffffffffffffffff1673ffffffffffffffffffffffffffffffffffffffff16815260200190815260200160002060009054906101000a900460ff16905092915050565b6000600a341015610b6b576040517f08c379a0000000000000000000000000000000000000000000000000000000008152600401610b6290612a69565b60405180910390fd5b610b75600b6112fc565b6000610b81600b611312565b9050610b8d8482611320565b610b9781846114f9565b8091505092915050565b60007f780e9d63000000000000000000000000000000000000000000000000000000007bffffffffffffffffffffffffffffffffffffffffffffffffffffffff1916827bffffffffffffffffffffffffffffffffffffffffffffffffffffffff19161480610c145750610c1382611566565b5b9050919050565b610c2481611648565b610c63576040517f08c379a0000000000000000000000000000000000000000000000000000000008152600401610c5a90612945565b60405180910390fd5b50565b600033905090565b816004600083815260200190815260200160002060006101000a81548173ffffffffffffffffffffffffffffffffffffffff021916908373ffffffffffffffffffffffffffffffffffffffff160217905550808273ffffffffffffffffffffffffffffffffffffffff16610ce18361080d565b73ffffffffffffffffffffffffffffffffffffffff167f8c5be1e5ebec7d5bd14f71427d1e84f3dd0314c0f7b2291e5b200ac8c7c3b92560405160405180910390a45050565b600080610d338361080d565b90508073ffffffffffffffffffffffffffffffffffffffff168473ffffffffffffffffffffffffffffffffffffffff161480610d755750610d748185610a91565b5b80610db357508373ffffffffffffffffffffffffffffffffffffffff16610d9b8461050d565b73ffffffffffffffffffffffffffffffffffffffff16145b91505092915050565b8273ffffffffffffffffffffffffffffffffffffffff16610ddc8261080d565b73ffffffffffffffffffffffffffffffffffffffff1614610e32576040517f08c379a0000000000000000000000000000000000000000000000000000000008152600401610e2990612afb565b60405180910390fd5b600073ffffffffffffffffffffffffffffffffffffffff168273ffffffffffffffffffffffffffffffffffffffff1603610ea1576040517f08c379a0000000000000000000000000000000000000000000000000000000008152600401610e9890612b8d565b60405180910390fd5b610eac8383836116b4565b610eb7600082610c6e565b6001600360008573ffffffffffffffffffffffffffffffffffffffff1673ffffffffffffffffffffffffffffffffffffffff1681526020019081526020016000206000828254610f079190612bdc565b925050819055506001600360008473ffffffffffffffffffffffffffffffffffffffff1673ffffffffffffffffffffffffffffffffffffffff1681526020019081526020016000206000828254610f5e9190612c10565b92505081905550816002600083815260200190815260200160002060006101000a81548173ffffffffffffffffffffffffffffffffffffffff021916908373ffffffffffffffffffffffffffffffffffffffff160217905550808273ffffffffffffffffffffffffffffffffffffffff168473ffffffffffffffffffffffffffffffffffffffff167fddf252ad1be2c89b69c2b068fc378daa952ba7f163c4a11628f55a4df523b3ef60405160405180910390a461101d8383836116c4565b505050565b8173ffffffffffffffffffffffffffffffffffffffff168373ffffffffffffffffffffffffffffffffffffffff1603611090576040517f08c379a000000000000000000000000000000000000000000000000000000000815260040161108790612c90565b60405180910390fd5b80600560008573ffffffffffffffffffffffffffffffffffffffff1673ffffffffffffffffffffffffffffffffffffffff16815260200190815260200160002060008473ffffffffffffffffffffffffffffffffffffffff1673ffffffffffffffffffffffffffffffffffffffff16815260200190815260200160002060006101000a81548160ff0219169083151502179055508173ffffffffffffffffffffffffffffffffffffffff168373ffffffffffffffffffffffffffffffffffffffff167f17307eab39ab6107e8899845ad3d59bd9653f200f220920489ca2b5937696c31836040516111819190611f8d565b60405180910390a3505050565b611199848484610dbc565b6111a5848484846116c9565b6111e4576040517f08c379a00000000000000000000000000000000000000000000000000000000081526004016111db90612d22565b60405180910390fd5b50505050565b60606111f582610c1b565b6000600660008481526020019081526020016000208054611215906125bf565b80601f0160208091040260200160405190810160405280929190818152602001828054611241906125bf565b801561128e5780601f106112635761010080835404028352916020019161128e565b820191906000526020600020905b81548152906001019060200180831161127157829003601f168201915b50505050509050600061129f611850565b905060008151036112b45781925050506112f7565b6000825111156112e95780826040516020016112d1929190612d7e565b604051602081830303815290604052925050506112f7565b6112f284611867565b925050505b919050565b6001816000016000828254019250508190555050565b600081600001549050919050565b600073ffffffffffffffffffffffffffffffffffffffff168273ffffffffffffffffffffffffffffffffffffffff160361138f576040517f08c379a000000000000000000000000000000000000000000000000000000000815260040161138690612dee565b60405180910390fd5b61139881611648565b156113d8576040517f08c379a00000000000000000000000000000000000000000000000000000000081526004016113cf90612e5a565b60405180910390fd5b6113e4600083836116b4565b6001600360008473ffffffffffffffffffffffffffffffffffffffff1673ffffffffffffffffffffffffffffffffffffffff16815260200190815260200160002060008282546114349190612c10565b92505081905550816002600083815260200190815260200160002060006101000a81548173ffffffffffffffffffffffffffffffffffffffff021916908373ffffffffffffffffffffffffffffffffffffffff160217905550808273ffffffffffffffffffffffffffffffffffffffff16600073ffffffffffffffffffffffffffffffffffffffff167fddf252ad1be2c89b69c2b068fc378daa952ba7f163c4a11628f55a4df523b3ef60405160405180910390a46114f5600083836116c4565b5050565b61150282611648565b611541576040517f08c379a000000000000000000000000000000000000000000000000000000000815260040161153890612eec565b60405180910390fd5b8060066000848152602001908152602001600020908161156191906130b8565b505050565b60007f80ac58cd000000000000000000000000000000000000000000000000000000007bffffffffffffffffffffffffffffffffffffffffffffffffffffffff1916827bffffffffffffffffffffffffffffffffffffffffffffffffffffffff1916148061163157507f5b5e139f000000000000000000000000000000000000000000000000000000007bffffffffffffffffffffffffffffffffffffffffffffffffffffffff1916827bffffffffffffffffffffffffffffffffffffffffffffffffffffffff1916145b806116415750611640826118cf565b5b9050919050565b60008073ffffffffffffffffffffffffffffffffffffffff166002600084815260200190815260200160002060009054906101000a900473ffffffffffffffffffffffffffffffffffffffff1673ffffffffffffffffffffffffffffffffffffffff1614159050919050565b6116bf838383611939565b505050565b505050565b60006116ea8473ffffffffffffffffffffffffffffffffffffffff16611a4b565b15611843578373ffffffffffffffffffffffffffffffffffffffff1663150b7a02611713610c66565b8786866040518563ffffffff1660e01b815260040161173594939291906131df565b6020604051808303816000875af192505050801561177157506040513d601f19601f8201168201806040525081019061176e9190613240565b60015b6117f3573d80600081146117a1576040519150601f19603f3d011682016040523d82523d6000602084013e6117a6565b606091505b5060008151036117eb576040517f08c379a00000000000000000000000000000000000000000000000000000000081526004016117e290612d22565b60405180910390fd5b805181602001fd5b63150b7a0260e01b7bffffffffffffffffffffffffffffffffffffffffffffffffffffffff1916817bffffffffffffffffffffffffffffffffffffffffffffffffffffffff191614915050611848565b600190505b949350505050565b606060405180602001604052806000815250905090565b606061187282610c1b565b600061187c611850565b9050600081511161189c57604051806020016040528060008152506118c7565b806118a684611a6e565b6040516020016118b7929190612d7e565b6040516020818303038152906040525b915050919050565b60007f01ffc9a7000000000000000000000000000000000000000000000000000000007bffffffffffffffffffffffffffffffffffffffffffffffffffffffff1916827bffffffffffffffffffffffffffffffffffffffffffffffffffffffff1916149050919050565b611944838383611bce565b600073ffffffffffffffffffffffffffffffffffffffff168373ffffffffffffffffffffffffffffffffffffffff16036119865761198181611bd3565b6119c5565b8173ffffffffffffffffffffffffffffffffffffffff168373ffffffffffffffffffffffffffffffffffffffff16146119c4576119c38382611c1c565b5b5b600073ffffffffffffffffffffffffffffffffffffffff168273ffffffffffffffffffffffffffffffffffffffff1603611a0757611a0281611d89565b611a46565b8273ffffffffffffffffffffffffffffffffffffffff168273ffffffffffffffffffffffffffffffffffffffff1614611a4557611a448282611e5a565b5b5b505050565b6000808273ffffffffffffffffffffffffffffffffffffffff163b119050919050565b606060008203611ab5576040518060400160405280600181526020017f30000000000000000000000000000000000000000000000000000000000000008152509050611bc9565b600082905060005b60008214611ae7578080611ad09061326d565b915050600a82611ae091906132e4565b9150611abd565b60008167ffffffffffffffff811115611b0357611b026122a5565b5b6040519080825280601f01601f191660200182016040528015611b355781602001600182028036833780820191505090505b5090505b60008514611bc257600182611b4e9190612bdc565b9150600a85611b5d9190613315565b6030611b699190612c10565b60f81b818381518110611b7f57611b7e6128ca565b5b60200101907effffffffffffffffffffffffffffffffffffffffffffffffffffffffffffff1916908160001a905350600a85611bbb91906132e4565b9450611b39565b8093505050505b919050565b505050565b600980549050600a600083815260200190815260200160002081905550600981908060018154018082558091505060019003906000526020600020016000909190919091505550565b60006001611c29846108be565b611c339190612bdc565b9050600060086000848152602001908152602001600020549050818114611d18576000600760008673ffffffffffffffffffffffffffffffffffffffff1673ffffffffffffffffffffffffffffffffffffffff168152602001908152602001600020600084815260200190815260200160002054905080600760008773ffffffffffffffffffffffffffffffffffffffff1673ffffffffffffffffffffffffffffffffffffffff168152602001908152602001600020600084815260200190815260200160002081905550816008600083815260200190815260200160002081905550505b6008600084815260200190815260200160002060009055600760008573ffffffffffffffffffffffffffffffffffffffff1673ffffffffffffffffffffffffffffffffffffffff16815260200190815260200160002060008381526020019081526020016000206000905550505050565b60006001600980549050611d9d9190612bdc565b90506000600a6000848152602001908152602001600020549050600060098381548110611dcd57611dcc6128ca565b5b906000526020600020015490508060098381548110611def57611dee6128ca565b5b906000526020600020018190555081600a600083815260200190815260200160002081905550600a6000858152602001908152602001600020600090556009805480611e3e57611e3d613346565b5b6001900381819060005260206000200160009055905550505050565b6000611e65836108be565b905081600760008573ffffffffffffffffffffffffffffffffffffffff1673ffffffffffffffffffffffffffffffffffffffff168152602001908152602001600020600083815260200190815260200160002081905550806008600084815260200190815260200160002081905550505050565b6000604051905090565b600080fd5b600080fd5b60007fffffffff0000000000000000000000000000000000000000000000000000000082169050919050565b611f2281611eed565b8114611f2d57600080fd5b50565b600081359050611f3f81611f19565b92915050565b600060208284031215611f5b57611f5a611ee3565b5b6000611f6984828501611f30565b91505092915050565b60008115159050919050565b611f8781611f72565b82525050565b6000602082019050611fa26000830184611f7e565b92915050565b600081519050919050565b600082825260208201905092915050565b60005b83811015611fe2578082015181840152602081019050611fc7565b60008484015250505050565b6000601f19601f8301169050919050565b600061200a82611fa8565b6120148185611fb3565b9350612024818560208601611fc4565b61202d81611fee565b840191505092915050565b600060208201905081810360008301526120528184611fff565b905092915050565b6000819050919050565b61206d8161205a565b811461207857600080fd5b50565b60008135905061208a81612064565b92915050565b6000602082840312156120a6576120a5611ee3565b5b60006120b48482850161207b565b91505092915050565b600073ffffffffffffffffffffffffffffffffffffffff82169050919050565b60006120e8826120bd565b9050919050565b6120f8816120dd565b82525050565b600060208201905061211360008301846120ef565b92915050565b612122816120dd565b811461212d57600080fd5b50565b60008135905061213f81612119565b92915050565b6000806040838503121561215c5761215b611ee3565b5b600061216a85828601612130565b925050602061217b8582860161207b565b9150509250929050565b61218e8161205a565b82525050565b60006020820190506121a96000830184612185565b92915050565b6000806000606084860312156121c8576121c7611ee3565b5b60006121d686828701612130565b93505060206121e786828701612130565b92505060406121f88682870161207b565b9150509250925092565b60006020828403121561221857612217611ee3565b5b600061222684828501612130565b91505092915050565b61223881611f72565b811461224357600080fd5b50565b6000813590506122558161222f565b92915050565b6000806040838503121561227257612271611ee3565b5b600061228085828601612130565b925050602061229185828601612246565b9150509250929050565b600080fd5b600080fd5b7f4e487b7100000000000000000000000000000000000000000000000000000000600052604160045260246000fd5b6122dd82611fee565b810181811067ffffffffffffffff821117156122fc576122fb6122a5565b5b80604052505050565b600061230f611ed9565b905061231b82826122d4565b919050565b600067ffffffffffffffff82111561233b5761233a6122a5565b5b61234482611fee565b9050602081019050919050565b82818337600083830152505050565b600061237361236e84612320565b612305565b90508281526020810184848401111561238f5761238e6122a0565b5b61239a848285612351565b509392505050565b600082601f8301126123b7576123b661229b565b5b81356123c7848260208601612360565b91505092915050565b600080600080608085870312156123ea576123e9611ee3565b5b60006123f887828801612130565b945050602061240987828801612130565b935050604061241a8782880161207b565b925050606085013567ffffffffffffffff81111561243b5761243a611ee8565b5b612447878288016123a2565b91505092959194509250565b6000806040838503121561246a57612469611ee3565b5b600061247885828601612130565b925050602061248985828601612130565b9150509250929050565b600067ffffffffffffffff8211156124ae576124ad6122a5565b5b6124b782611fee565b9050602081019050919050565b60006124d76124d284612493565b612305565b9050828152602081018484840111156124f3576124f26122a0565b5b6124fe848285612351565b509392505050565b600082601f83011261251b5761251a61229b565b5b813561252b8482602086016124c4565b91505092915050565b6000806040838503121561254b5761254a611ee3565b5b600061255985828601612130565b925050602083013567ffffffffffffffff81111561257a57612579611ee8565b5b61258685828601612506565b9150509250929050565b7f4e487b7100000000000000000000000000000000000000000000000000000000600052602260045260246000fd5b600060028204905060018216806125d757607f821691505b6020821081036125ea576125e9612590565b5b50919050565b7f4552433732313a20617070726f76616c20746f2063757272656e74206f776e6560008201527f7200000000000000000000000000000000000000000000000000000000000000602082015250565b600061264c602183611fb3565b9150612657826125f0565b604082019050919050565b6000602082019050818103600083015261267b8161263f565b9050919050565b7f4552433732313a20617070726f76652063616c6c6572206973206e6f7420746f60008201527f6b656e206f776e6572206e6f7220617070726f76656420666f7220616c6c0000602082015250565b60006126de603e83611fb3565b91506126e982612682565b604082019050919050565b6000602082019050818103600083015261270d816126d1565b9050919050565b7f4552433732313a2063616c6c6572206973206e6f7420746f6b656e206f776e6560008201527f72206e6f7220617070726f766564000000000000000000000000000000000000602082015250565b6000612770602e83611fb3565b915061277b82612714565b604082019050919050565b6000602082019050818103600083015261279f81612763565b9050919050565b7f455243373231456e756d657261626c653a206f776e657220696e646578206f7560008201527f74206f6620626f756e6473000000000000000000000000000000000000000000602082015250565b6000612802602b83611fb3565b915061280d826127a6565b604082019050919050565b60006020820190508181036000830152612831816127f5565b9050919050565b7f455243373231456e756d657261626c653a20676c6f62616c20696e646578206f60008201527f7574206f6620626f756e64730000000000000000000000000000000000000000602082015250565b6000612894602c83611fb3565b915061289f82612838565b604082019050919050565b600060208201905081810360008301526128c381612887565b9050919050565b7f4e487b7100000000000000000000000000000000000000000000000000000000600052603260045260246000fd5b7f4552433732313a20696e76616c696420746f6b656e2049440000000000000000600082015250565b600061292f601883611fb3565b915061293a826128f9565b602082019050919050565b6000602082019050818103600083015261295e81612922565b9050919050565b7f4552433732313a2061646472657373207a65726f206973206e6f74206120766160008201527f6c6964206f776e65720000000000000000000000000000000000000000000000602082015250565b60006129c1602983611fb3565b91506129cc82612965565b604082019050919050565b600060208201905081810360008301526129f0816129b4565b9050919050565b7f4e6f7420656e6f756768204554482073656e743b20636865636b20707269636560008201527f2100000000000000000000000000000000000000000000000000000000000000602082015250565b6000612a53602183611fb3565b9150612a5e826129f7565b604082019050919050565b60006020820190508181036000830152612a8281612a46565b9050919050565b7f4552433732313a207472616e736665722066726f6d20696e636f72726563742060008201527f6f776e6572000000000000000000000000000000000000000000000000000000602082015250565b6000612ae5602583611fb3565b9150612af082612a89565b604082019050919050565b60006020820190508181036000830152612b1481612ad8565b9050919050565b7f4552433732313a207472616e7366657220746f20746865207a65726f2061646460008201527f7265737300000000000000000000000000000000000000000000000000000000602082015250565b6000612b77602483611fb3565b9150612b8282612b1b565b604082019050919050565b60006020820190508181036000830152612ba681612b6a565b9050919050565b7f4e487b7100000000000000000000000000000000000000000000000000000000600052601160045260246000fd5b6000612be78261205a565b9150612bf28361205a565b9250828203905081811115612c0a57612c09612bad565b5b92915050565b6000612c1b8261205a565b9150612c268361205a565b9250828201905080821115612c3e57612c3d612bad565b5b92915050565b7f4552433732313a20617070726f766520746f2063616c6c657200000000000000600082015250565b6000612c7a601983611fb3565b9150612c8582612c44565b602082019050919050565b60006020820190508181036000830152612ca981612c6d565b9050919050565b7f4552433732313a207472616e7366657220746f206e6f6e20455243373231526560008201527f63656976657220696d706c656d656e7465720000000000000000000000000000602082015250565b6000612d0c603283611fb3565b9150612d1782612cb0565b604082019050919050565b60006020820190508181036000830152612d3b81612cff565b9050919050565b600081905092915050565b6000612d5882611fa8565b612d628185612d42565b9350612d72818560208601611fc4565b80840191505092915050565b6000612d8a8285612d4d565b9150612d968284612d4d565b91508190509392505050565b7f4552433732313a206d696e7420746f20746865207a65726f2061646472657373600082015250565b6000612dd8602083611fb3565b9150612de382612da2565b602082019050919050565b60006020820190508181036000830152612e0781612dcb565b9050919050565b7f4552433732313a20746f6b656e20616c7265616479206d696e74656400000000600082015250565b6000612e44601c83611fb3565b9150612e4f82612e0e565b602082019050919050565b60006020820190508181036000830152612e7381612e37565b9050919050565b7f45524337323155524953746f726167653a2055524920736574206f66206e6f6e60008201527f6578697374656e7420746f6b656e000000000000000000000000000000000000602082015250565b6000612ed6602e83611fb3565b9150612ee182612e7a565b604082019050919050565b60006020820190508181036000830152612f0581612ec9565b9050919050565b60008190508160005260206000209050919050565b60006020601f8301049050919050565b600082821b905092915050565b600060088302612f6e7fffffffffffffffffffffffffffffffffffffffffffffffffffffffffffffffff82612f31565b612f788683612f31565b95508019841693508086168417925050509392505050565b6000819050919050565b6000612fb5612fb0612fab8461205a565b612f90565b61205a565b9050919050565b6000819050919050565b612fcf83612f9a565b612fe3612fdb82612fbc565b848454612f3e565b825550505050565b600090565b612ff8612feb565b613003818484612fc6565b505050565b5b818110156130275761301c600082612ff0565b600181019050613009565b5050565b601f82111561306c5761303d81612f0c565b61304684612f21565b81016020851015613055578190505b61306961306185612f21565b830182613008565b50505b505050565b600082821c905092915050565b600061308f60001984600802613071565b1980831691505092915050565b60006130a8838361307e565b9150826002028217905092915050565b6130c182611fa8565b67ffffffffffffffff8111156130da576130d96122a5565b5b6130e482546125bf565b6130ef82828561302b565b600060209050601f8311600181146131225760008415613110578287015190505b61311a858261309c565b865550613182565b601f19841661313086612f0c565b60005b8281101561315857848901518255600182019150602085019450602081019050613133565b868310156131755784890151613171601f89168261307e565b8355505b6001600288020188555050505b505050505050565b600081519050919050565b600082825260208201905092915050565b60006131b18261318a565b6131bb8185613195565b93506131cb818560208601611fc4565b6131d481611fee565b840191505092915050565b60006080820190506131f460008301876120ef565b61320160208301866120ef565b61320e6040830185612185565b818103606083015261322081846131a6565b905095945050505050565b60008151905061323a81611f19565b92915050565b60006020828403121561325657613255611ee3565b5b60006132648482850161322b565b91505092915050565b60006132788261205a565b91507fffffffffffffffffffffffffffffffffffffffffffffffffffffffffffffffff82036132aa576132a9612bad565b5b600182019050919050565b7f4e487b7100000000000000000000000000000000000000000000000000000000600052601260045260246000fd5b60006132ef8261205a565b91506132fa8361205a565b92508261330a576133096132b5565b5b828204905092915050565b60006133208261205a565b915061332b8361205a565b92508261333b5761333a6132b5565b5b828206905092915050565b7f4e487b7100000000000000000000000000000000000000000000000000000000600052603160045260246000fdfea26469706673582212203725cb05f47735da454ec130bba9fbe9feabf8d90893973bdf966a575303af0e64736f6c63430008110033",
  "linkReferences": {},
  "deployedLinkReferences": {}
}